:020000021000EC
:100074009307000091C7170500001305453191A6A9
:100084008280971100009381A178138581C3138620
:1000940001C6098E81457922170500001305A53292
:1000A40011C5170500001305852E212E392202459E
:1000B4004C0001466D28EDA0411122C4138481C374
:1000C4008347040006C699EF9307000089CB1715F0
:1000D40000001305E5F297000000E70000008547E3
:1000E4002300F400B24022444101828093070000BF
:1000F40099CB9385C1C317150000130565F0170349
:100104000000670000008280011122CE0010AA873F
:10011400A307F4FE0100B70700FF91079C43858BFA
:10012400FDFBB70700FF0307F4FE98C30100724408
:1001340005618280011106CE22CC00102326A4FE84
:1001440021A88327C4FE838707003E85753F832744
:10015400C4FE85072326F4FE8327C4FE8387070095
:10016400EDF385473E85F24062440561828041118A
:1001740006C622C40008C16713858759653FC16755
:100184001385875A453FC1671385875B6537814768
:100194003E85B24022444101828003A541C382804E
:1001A4004111814522C406C62A840D2203A501C338
:1001B4005C5D91C3829722854124411122C44AC0C7
:1001C40017140000130404E417190000130989E349
:1001D4003309894006C626C2135929406309090018
:1001E40081441C40850411048297E31C99FE171472
:1001F4000000130424E117190000130929E133094D
:100204008940135929406309090081441C4085042D
:1002140011048297E31C99FEB2402244924402499D
:10022400410182803D432A876373C3029377F700B9
:10023400BDEFADE5937606FF3D8ABA960CC34CC379
:100244000CC74CC74107E36BD7FE11E28280B306AB
:10025400C3408A069702000096966780A60023078B
:10026400B700A306B7002306B700A305B70023050C
:10027400B700A304B7002304B700A303B700230304
:10028400B700A302B7002302B700A301B7002301FC
:10029400B700A300B7002300B700828093F5F50FE1
:1002A40093968500D58D93960501D58D61B7939668
:1002B40027009702000096968682E78086FA968049
:1002C400C1171D8F3E96E374C3F8A5B7797152CC5C
:1002D40003AA01C34AD003298A1406D622D426D2FB
:1002E4004ECE56CA5AC85EC662C4630809022A8B37
:1002F400AE8B854AFD59832449001384F4FF634E71
:1003040004008A04CA9463860B0283A744106382A0
:1003140077037D14F114E31834FFB250225492543D
:100324000259F249624AD24A424BB24B224C4561CD
:10033400828083274900D440FD176382870423A267
:100344000400E1DA8327891833978A00032C4900D3
:10035400F98F89EF82960327490083278A1463144F
:100364008701E38827FBD5DB3E8971B78327C9184A
:1003740083A544087D8F19E75A858296E9BF232215
:100384008900C1B72E858296F9B7411122C4971707
:1003940000009387E7C717140000130424C7818F54
:1003A40026C206C693D4274081C8F1173E941C4048
:1003B400FD1471148297E5FCB24022449244410139
:1003C4008280AA8581460146014509A003A701C38D
:1003D40083278714A1C3D8437D48634DE8041318C9
:1003E40027001DC1338307012324C30883A887186A
:1003F40005463316E600B3E8C80023A417192324DE
:10040400D3108946630DD5000507D8C3C2978CC79E
:10041400014582809307C7142324F7146DBF83A674
:10042400C7180507D8C3558E23A6C718C2978CC70B
:10043400014582807D5582809308D00573000000B9
:100444006343050001A0411122C42A8406C6330473
:080454008040A13300C101A0AA
:10045C005741524E494E473A204D6178696D756D42
:10046C002066756E6374696F6E20636F756E742091
:10047C0069732072656163686564210D0A00000070
:10048C004552524F523A2046756E6374696F6E2016
:10049C0030782530387820776173206E6F74206641
:1004AC006F756E6420616E64207468652061727271
:1004BC0061792069732066756C6C210D0A0000004F
:1004CC004552524F523A2046756E6374696F6E20D6
:1004DC0030782530387820776173206E6F74206601
:1004EC006F756E64210D0A004E554C4C00000000D7
:1004FC0043757272656E7420496E73747275637491
:10050C00696F6E204E756D626572732045786563F8
:10051C007574656420736F206661723A203078259B
:10052C006C6C780D0A00000046756E6320252D3327
:10053C00307320307825303878202D20496E737434
:10054C0072436F756E743A203078256C6C7820206D
:10055C002055736167653A20000000000D0A000009
:10056C00436F6465206861766520656E746572659D
:10057C00642025642066756E6374696F6E732073D6
:10058C006F206661722E0D0A0000000048656C6CCD
:10059C006F205061736120310D0A000048656C6C4E
:1005AC006F205061736120320D0A000048656C6C3D
:1005BC006F205061736120330D0A00004B65794543
:1005CC007870616E73696F6E000000005375624243
:1005DC0079746573000000005368696674526F7714
:1005EC00730000007874696D650000004D697843F4
:1005FC006F6C756D6E730000416464526F756E6440
:10060C004B6579004369706865720000496E7653DA
:10061C0068696674526F777300000000496E7653F8
:10062C007562427974657300496E764D6978436FD3
:10063C006C756D6E73000000496E76436970686569
:10064C0072000000666F72735F736B5F746F5F6C28
:10065C00656166006D6573736167655F746F5F6973
:10066C006E64696365730000666F72735F67656EB5
:10067C005F736B00666F72735F67656E5F6C65614D
:10068C00660000006C6F61645F626967656E646927
:10069C00616E5F36340000006C6F61645F62696785
:1006AC00656E6469616E5F333200000073746F7243
:1006BC00655F626967656E6469616E5F3332000005
:1006CC0063727970746F5F68617368626C6F636B6F
:1006DC00735F7368613235360000000073746F729B
:1006EC00655F626967656E6469616E5F36340000D0
:1006FC00776F74735F67656E5F6C65616600000091
:10070C00626173655F770000776F74735F67656E06
:10071C005F736B0067656E5F636861696E000000F4
:10072C00776F74735F636865636B73756D0000003E
:10073C00636861696E5F6C656E6774687300000056
:10074C00736565645F737461746500007365745FD1
:10075C006C617965725F6164647200007365745FCB
:10076C006B6579706169725F61646472000000008E
:10077C00776F74735F7369676E0000007368613222
:10078C0035365F696E635F66696E616C697A6500A8
:10079C0073657444656275674C6576656C00000022
:1007AC0067657454696D655F6D7300004145535FF7
:1007BC004543425F64656372797074006D656D6D5D
:1007CC006F76650063727970746F5F7369676E5FC3
:1007DC00736565645F6B6579706169720000000018
:1007EC007365745F747265655F696E64657800002B
:1007FC007368613235365F696E635F626C6F636B11
:10080C007300000063727970746F5F7369676E5F59
:10081C007365637265746B657962797465730000D6
:10082C007533325F746F5F6279746573000000001A
:10083C006D656D63707900004145533235365F4309
:10084C0054525F445242475F5570646174650000B6
:10085C00746861736800000073656E64556172742E
:10086C0042797465576169745472616E736D697401
:10087C00446F6E6500000000756C6C5F746F5F6296
:10088C007974657300000000736565646578706148
:10089C006E64657200000000776F74735F67656E3D
:1008AC005F706B0063727970746F5F7369676E5FF2
:1008BC006279746573000000726561643332426959
:1008CC00744461746146726F6D41646472657373D4
:1008DC00000000006D6766310000000063727970E3
:1008EC00746F5F7369676E5F7075626C69636B655B
:1008FC007962797465730000636F70795F737562E8
:10090C00747265655F616464720000004145535FF9
:10091C004543425F656E637279707400696E6974E9
:10092C0069616C697A655F686173685F66756E632F
:10093C0074696F6E00000000726573657454696DA4
:10094C00655374616D70000072616E646F6D6279D5
:10095C0074657300776F74735F706B5F66726F6D25
:10096C005F736967000000007365745F686173688A
:10097C005F616464720000007368613235365F69D0
:10098C006E635F696E69740063727970746F5F7304
:10099C0069676E5F6B6579706169720072616E6414
:1009AC006F6D62797465735F696E69740000000025
:1009BC0063727970746F5F7369676E5F7369676E6A
:1009CC0061747572650000007365656465787061AB
:1009DC006E6465725F696E69740000007772697489
:1009EC0065333242697444617461546F416464725A
:1009FC0065737300636F6D707574655F726F6F7480
:100A0C00000000007365745F636861696E5F616408
:100A1C00647200006462675F7072696E74660000D5
:100A2C0067657455363446726F6D54776F55333233
:100A3C007300000063727970746F5F7369676E0086
:100A4C00666F72735F7369676E00000067656E5F37
:100A5C006D6573736167655F72616E646F6D0000C5
:100A6C0063727970746F5F7369676E5F76657269B4
:100A7C00667900006D656D636D7000006765745478
:100A8C00696D65446966665F6D73000062656E63CF
:100A9C00686D61726B0000007365745F74726565DC
:100AAC005F686569676874006D656D7365740000D7
:100ABC006D61696E000000004145533235365F456B
:100ACC00434200007072665F616464720000000053
:100ADC007365745F747970650000000063727970DF
:100AEC00746F5F7369676E5F736565646279746553
:100AFC0073000000686173685F6D6573736167658F
:100B0C0000000000636F70795F6B657970616972CA
:100B1C005F616464720000007368613235360000F6
:100B2C006765744370754379636C654C6F7700002F
:100B3C0063727970746F5F7369676E5F6F70656EE7
:100B4C00000000004145535F696E69745F637478FF
:100B5C00000000007365745F747265655F616464A6
:100B6C007200000062797465735F746F5F756C6CF2
:100B7C00000000007374726C656E0000696E745432
:100B8C006F537472696E6700777269746538426965
:100B9C007444617461546F416464726573730000D2
:100BAC00747265656861736800000000666F72732B
:100BBC005F706B5F66726F6D5F736967000000003A
:100BCC0067657454696D655374616D700000000045
:100BDC006765744370754379636C65486967680031
:100BEC00696E74546F486578537472696E6700004F
:040BFC000000C842EB
:0410000000000000EC
:0810040074000100F00001007E
:04100C00BC00010023
:1010100000000000FC12010064130100CC13010069
:1010200000000000000000000000000000000000C0
:1010300000000000000000000000000000000000B0
:1010400000000000000000000000000000000000A0
:101050000000000000000000000000000000000090
:101060000000000000000000000000000000000080
:101070000000000000000000000000000000000070
:101080000000000000000000000000000000000060
:101090000000000000000000000000000000000050
:1010A0000000000000000000000000000000000040
:1010B000000000000000000001000000000000002F
:1010C0000E33CDAB34126DE6ECDE05000B000000F4
:1010D0000000000000000000000000000000000010
:1010E0000000000000000000000000000000000000
:1010F00000000000000000000000000000000000F0
:1011000000000000000000000000000000000000DF
:101438000000000000000000101001001010010062
:040000031000008663
:00000001FF
